{
  "_format": "hh-sol-artifact-1",
  "contractName": "MyCoin",
  "sourceName": "contracts/MyCoin.sol",
  "abi": [
    {
      "inputs": [],
      "stateMutability": "nonpayable",
      "type": "constructor"
    },
    {
      "inputs": [],
      "name": "AccessControlBadConfirmation",
      "type": "error"
    },
    {
      "inputs": [
        {
          "internalType": "address",
          "name": "account",
          "type": "address"
        },
        {
          "internalType": "bytes32",
          "name": "neededRole",
          "type": "bytes32"
        }
      ],
      "name": "AccessControlUnauthorizedAccount",
      "type": "error"
    },
    {
      "inputs": [
        {
          "internalType": "address",
          "name": "target",
          "type": "address"
        }
      ],
      "name": "AddressEmptyCode",
      "type": "error"
    },
    {
      "inputs": [],
      "name": "ECDSAInvalidSignature",
      "type": "error"
    },
    {
      "inputs": [
        {
          "internalType": "uint256",
          "name": "length",
          "type": "uint256"
        }
      ],
      "name": "ECDSAInvalidSignatureLength",
      "type": "error"
    },
    {
      "inputs": [
        {
          "internalType": "bytes32",
          "name": "s",
          "type": "bytes32"
        }
      ],
      "name": "ECDSAInvalidSignatureS",
      "type": "error"
    },
    {
      "inputs": [
        {
          "internalType": "address",
          "name": "implementation",
          "type": "address"
        }
      ],
      "name": "ERC1967InvalidImplementation",
      "type": "error"
    },
    {
      "inputs": [],
      "name": "ERC1967NonPayable",
      "type": "error"
    },
    {
      "inputs": [
        {
          "internalType": "address",
          "name": "spender",
          "type": "address"
        },
        {
          "internalType": "uint256",
          "name": "allowance",
          "type": "uint256"
        },
        {
          "internalType": "uint256",
          "name": "needed",
          "type": "uint256"
        }
      ],
      "name": "ERC20InsufficientAllowance",
      "type": "error"
    },
    {
      "inputs": [
        {
          "internalType": "address",
          "name": "sender",
          "type": "address"
        },
        {
          "internalType": "uint256",
          "name": "balance",
          "type": "uint256"
        },
        {
          "internalType": "uint256",
          "name": "needed",
          "type": "uint256"
        }
      ],
      "name": "ERC20InsufficientBalance",
      "type": "error"
    },
    {
      "inputs": [
        {
          "internalType": "address",
          "name": "approver",
          "type": "address"
        }
      ],
      "name": "ERC20InvalidApprover",
      "type": "error"
    },
    {
      "inputs": [
        {
          "internalType": "address",
          "name": "receiver",
          "type": "address"
        }
      ],
      "name": "ERC20InvalidReceiver",
      "type": "error"
    },
    {
      "inputs": [
        {
          "internalType": "address",
          "name": "sender",
          "type": "address"
        }
      ],
      "name": "ERC20InvalidSender",
      "type": "error"
    },
    {
      "inputs": [
        {
          "internalType": "address",
          "name": "spender",
          "type": "address"
        }
      ],
      "name": "ERC20InvalidSpender",
      "type": "error"
    },
    {
      "inputs": [
        {
          "internalType": "uint256",
          "name": "deadline",
          "type": "uint256"
        }
      ],
      "name": "ERC2612ExpiredSignature",
      "type": "error"
    },
    {
      "inputs": [
        {
          "internalType": "address",
          "name": "signer",
          "type": "address"
        },
        {
          "internalType": "address",
          "name": "owner",
          "type": "address"
        }
      ],
      "name": "ERC2612InvalidSigner",
      "type": "error"
    },
    {
      "inputs": [],
      "name": "EnforcedPause",
      "type": "error"
    },
    {
      "inputs": [],
      "name": "ExpectedPause",
      "type": "error"
    },
    {
      "inputs": [],
      "name": "FailedInnerCall",
      "type": "error"
    },
    {
      "inputs": [
        {
          "internalType": "address",
          "name": "account",
          "type": "address"
        },
        {
          "internalType": "uint256",
          "name": "currentNonce",
          "type": "uint256"
        }
      ],
      "name": "InvalidAccountNonce",
      "type": "error"
    },
    {
      "inputs": [],
      "name": "InvalidInitialization",
      "type": "error"
    },
    {
      "inputs": [],
      "name": "NotInitializing",
      "type": "error"
    },
    {
      "inputs": [],
      "name": "UUPSUnauthorizedCallContext",
      "type": "error"
    },
    {
      "inputs": [
        {
          "internalType": "bytes32",
          "name": "slot",
          "type": "bytes32"
        }
      ],
      "name": "UUPSUnsupportedProxiableUUID",
      "type": "error"
    },
    {
      "anonymous": false,
      "inputs": [
        {
          "indexed": true,
          "internalType": "address",
          "name": "owner",
          "type": "address"
        },
        {
          "indexed": true,
          "internalType": "address",
          "name": "spender",
          "type": "address"
        },
        {
          "indexed": false,
          "internalType": "uint256",
          "name": "value",
          "type": "uint256"
        }
      ],
      "name": "Approval",
      "type": "event"
    },
    {
      "anonymous": false,
      "inputs": [],
      "name": "EIP712DomainChanged",
      "type": "event"
    },
    {
      "anonymous": false,
      "inputs": [
        {
          "indexed": false,
          "internalType": "uint64",
          "name": "version",
          "type": "uint64"
        }
      ],
      "name": "Initialized",
      "type": "event"
    },
    {
      "anonymous": false,
      "inputs": [
        {
          "indexed": false,
          "internalType": "address",
          "name": "account",
          "type": "address"
        }
      ],
      "name": "Paused",
      "type": "event"
    },
    {
      "anonymous": false,
      "inputs": [
        {
          "indexed": true,
          "internalType": "bytes32",
          "name": "role",
          "type": "bytes32"
        },
        {
          "indexed": true,
          "internalType": "bytes32",
          "name": "previousAdminRole",
          "type": "bytes32"
        },
        {
          "indexed": true,
          "internalType": "bytes32",
          "name": "newAdminRole",
          "type": "bytes32"
        }
      ],
      "name": "RoleAdminChanged",
      "type": "event"
    },
    {
      "anonymous": false,
      "inputs": [
        {
          "indexed": true,
          "internalType": "bytes32",
          "name": "role",
          "type": "bytes32"
        },
        {
          "indexed": true,
          "internalType": "address",
          "name": "account",
          "type": "address"
        },
        {
          "indexed": true,
          "internalType": "address",
          "name": "sender",
          "type": "address"
        }
      ],
      "name": "RoleGranted",
      "type": "event"
    },
    {
      "anonymous": false,
      "inputs": [
        {
          "indexed": true,
          "internalType": "bytes32",
          "name": "role",
          "type": "bytes32"
        },
        {
          "indexed": true,
          "internalType": "address",
          "name": "account",
          "type": "address"
        },
        {
          "indexed": true,
          "internalType": "address",
          "name": "sender",
          "type": "address"
        }
      ],
      "name": "RoleRevoked",
      "type": "event"
    },
    {
      "anonymous": false,
      "inputs": [
        {
          "indexed": true,
          "internalType": "address",
          "name": "from",
          "type": "address"
        },
        {
          "indexed": true,
          "internalType": "address",
          "name": "to",
          "type": "address"
        },
        {
          "indexed": false,
          "internalType": "uint256",
          "name": "value",
          "type": "uint256"
        }
      ],
      "name": "Transfer",
      "type": "event"
    },
    {
      "anonymous": false,
      "inputs": [
        {
          "indexed": false,
          "internalType": "address",
          "name": "account",
          "type": "address"
        }
      ],
      "name": "Unpaused",
      "type": "event"
    },
    {
      "anonymous": false,
      "inputs": [
        {
          "indexed": true,
          "internalType": "address",
          "name": "implementation",
          "type": "address"
        }
      ],
      "name": "Upgraded",
      "type": "event"
    },
    {
      "inputs": [],
      "name": "DEFAULT_ADMIN_ROLE",
      "outputs": [
        {
          "internalType": "bytes32",
          "name": "",
          "type": "bytes32"
        }
      ],
      "stateMutability": "view",
      "type": "function"
    },
    {
      "inputs": [],
      "name": "DOMAIN_SEPARATOR",
      "outputs": [
        {
          "internalType": "bytes32",
          "name": "",
          "type": "bytes32"
        }
      ],
      "stateMutability": "view",
      "type": "function"
    },
    {
      "inputs": [],
      "name": "MINTER_ROLE",
      "outputs": [
        {
          "internalType": "bytes32",
          "name": "",
          "type": "bytes32"
        }
      ],
      "stateMutability": "view",
      "type": "function"
    },
    {
      "inputs": [],
      "name": "PAUSER_ROLE",
      "outputs": [
        {
          "internalType": "bytes32",
          "name": "",
          "type": "bytes32"
        }
      ],
      "stateMutability": "view",
      "type": "function"
    },
    {
      "inputs": [],
      "name": "UPGRADER_ROLE",
      "outputs": [
        {
          "internalType": "bytes32",
          "name": "",
          "type": "bytes32"
        }
      ],
      "stateMutability": "view",
      "type": "function"
    },
    {
      "inputs": [],
      "name": "UPGRADE_INTERFACE_VERSION",
      "outputs": [
        {
          "internalType": "string",
          "name": "",
          "type": "string"
        }
      ],
      "stateMutability": "view",
      "type": "function"
    },
    {
      "inputs": [
        {
          "internalType": "address",
          "name": "owner",
          "type": "address"
        },
        {
          "internalType": "address",
          "name": "spender",
          "type": "address"
        }
      ],
      "name": "allowance",
      "outputs": [
        {
          "internalType": "uint256",
          "name": "",
          "type": "uint256"
        }
      ],
      "stateMutability": "view",
      "type": "function"
    },
    {
      "inputs": [
        {
          "internalType": "address",
          "name": "spender",
          "type": "address"
        },
        {
          "internalType": "uint256",
          "name": "value",
          "type": "uint256"
        }
      ],
      "name": "approve",
      "outputs": [
        {
          "internalType": "bool",
          "name": "",
          "type": "bool"
        }
      ],
      "stateMutability": "nonpayable",
      "type": "function"
    },
    {
      "inputs": [
        {
          "internalType": "address",
          "name": "account",
          "type": "address"
        }
      ],
      "name": "balanceOf",
      "outputs": [
        {
          "internalType": "uint256",
          "name": "",
          "type": "uint256"
        }
      ],
      "stateMutability": "view",
      "type": "function"
    },
    {
      "inputs": [
        {
          "internalType": "uint256",
          "name": "value",
          "type": "uint256"
        }
      ],
      "name": "burn",
      "outputs": [],
      "stateMutability": "nonpayable",
      "type": "function"
    },
    {
      "inputs": [
        {
          "internalType": "address",
          "name": "account",
          "type": "address"
        },
        {
          "internalType": "uint256",
          "name": "value",
          "type": "uint256"
        }
      ],
      "name": "burnFrom",
      "outputs": [],
      "stateMutability": "nonpayable",
      "type": "function"
    },
    {
      "inputs": [],
      "name": "decimals",
      "outputs": [
        {
          "internalType": "uint8",
          "name": "",
          "type": "uint8"
        }
      ],
      "stateMutability": "view",
      "type": "function"
    },
    {
      "inputs": [],
      "name": "eip712Domain",
      "outputs": [
        {
          "internalType": "bytes1",
          "name": "fields",
          "type": "bytes1"
        },
        {
          "internalType": "string",
          "name": "name",
          "type": "string"
        },
        {
          "internalType": "string",
          "name": "version",
          "type": "string"
        },
        {
          "internalType": "uint256",
          "name": "chainId",
          "type": "uint256"
        },
        {
          "internalType": "address",
          "name": "verifyingContract",
          "type": "address"
        },
        {
          "internalType": "bytes32",
          "name": "salt",
          "type": "bytes32"
        },
        {
          "internalType": "uint256[]",
          "name": "extensions",
          "type": "uint256[]"
        }
      ],
      "stateMutability": "view",
      "type": "function"
    },
    {
      "inputs": [
        {
          "internalType": "bytes32",
          "name": "role",
          "type": "bytes32"
        }
      ],
      "name": "getRoleAdmin",
      "outputs": [
        {
          "internalType": "bytes32",
          "name": "",
          "type": "bytes32"
        }
      ],
      "stateMutability": "view",
      "type": "function"
    },
    {
      "inputs": [
        {
          "internalType": "bytes32",
          "name": "role",
          "type": "bytes32"
        },
        {
          "internalType": "address",
          "name": "account",
          "type": "address"
        }
      ],
      "name": "grantRole",
      "outputs": [],
      "stateMutability": "nonpayable",
      "type": "function"
    },
    {
      "inputs": [
        {
          "internalType": "bytes32",
          "name": "role",
          "type": "bytes32"
        },
        {
          "internalType": "address",
          "name": "account",
          "type": "address"
        }
      ],
      "name": "hasRole",
      "outputs": [
        {
          "internalType": "bool",
          "name": "",
          "type": "bool"
        }
      ],
      "stateMutability": "view",
      "type": "function"
    },
    {
      "inputs": [
        {
          "internalType": "address",
          "name": "defaultAdmin",
          "type": "address"
        },
        {
          "internalType": "address",
          "name": "pauser",
          "type": "address"
        },
        {
          "internalType": "address",
          "name": "minter",
          "type": "address"
        },
        {
          "internalType": "address",
          "name": "upgrader",
          "type": "address"
        }
      ],
      "name": "initialize",
      "outputs": [],
      "stateMutability": "nonpayable",
      "type": "function"
    },
    {
      "inputs": [
        {
          "internalType": "address",
          "name": "to",
          "type": "address"
        },
        {
          "internalType": "uint256",
          "name": "amount",
          "type": "uint256"
        }
      ],
      "name": "mint",
      "outputs": [],
      "stateMutability": "nonpayable",
      "type": "function"
    },
    {
      "inputs": [],
      "name": "name",
      "outputs": [
        {
          "internalType": "string",
          "name": "",
          "type": "string"
        }
      ],
      "stateMutability": "view",
      "type": "function"
    },
    {
      "inputs": [
        {
          "internalType": "address",
          "name": "owner",
          "type": "address"
        }
      ],
      "name": "nonces",
      "outputs": [
        {
          "internalType": "uint256",
          "name": "",
          "type": "uint256"
        }
      ],
      "stateMutability": "view",
      "type": "function"
    },
    {
      "inputs": [],
      "name": "pause",
      "outputs": [],
      "stateMutability": "nonpayable",
      "type": "function"
    },
    {
      "inputs": [],
      "name": "paused",
      "outputs": [
        {
          "internalType": "bool",
          "name": "",
          "type": "bool"
        }
      ],
      "stateMutability": "view",
      "type": "function"
    },
    {
      "inputs": [
        {
          "internalType": "address",
          "name": "owner",
          "type": "address"
        },
        {
          "internalType": "address",
          "name": "spender",
          "type": "address"
        },
        {
          "internalType": "uint256",
          "name": "value",
          "type": "uint256"
        },
        {
          "internalType": "uint256",
          "name": "deadline",
          "type": "uint256"
        },
        {
          "internalType": "uint8",
          "name": "v",
          "type": "uint8"
        },
        {
          "internalType": "bytes32",
          "name": "r",
          "type": "bytes32"
        },
        {
          "internalType": "bytes32",
          "name": "s",
          "type": "bytes32"
        }
      ],
      "name": "permit",
      "outputs": [],
      "stateMutability": "nonpayable",
      "type": "function"
    },
    {
      "inputs": [],
      "name": "proxiableUUID",
      "outputs": [
        {
          "internalType": "bytes32",
          "name": "",
          "type": "bytes32"
        }
      ],
      "stateMutability": "view",
      "type": "function"
    },
    {
      "inputs": [
        {
          "internalType": "bytes32",
          "name": "role",
          "type": "bytes32"
        },
        {
          "internalType": "address",
          "name": "callerConfirmation",
          "type": "address"
        }
      ],
      "name": "renounceRole",
      "outputs": [],
      "stateMutability": "nonpayable",
      "type": "function"
    },
    {
      "inputs": [
        {
          "internalType": "bytes32",
          "name": "role",
          "type": "bytes32"
        },
        {
          "internalType": "address",
          "name": "account",
          "type": "address"
        }
      ],
      "name": "revokeRole",
      "outputs": [],
      "stateMutability": "nonpayable",
      "type": "function"
    },
    {
      "inputs": [
        {
          "internalType": "bytes4",
          "name": "interfaceId",
          "type": "bytes4"
        }
      ],
      "name": "supportsInterface",
      "outputs": [
        {
          "internalType": "bool",
          "name": "",
          "type": "bool"
        }
      ],
      "stateMutability": "view",
      "type": "function"
    },
    {
      "inputs": [],
      "name": "symbol",
      "outputs": [
        {
          "internalType": "string",
          "name": "",
          "type": "string"
        }
      ],
      "stateMutability": "view",
      "type": "function"
    },
    {
      "inputs": [],
      "name": "totalSupply",
      "outputs": [
        {
          "internalType": "uint256",
          "name": "",
          "type": "uint256"
        }
      ],
      "stateMutability": "view",
      "type": "function"
    },
    {
      "inputs": [
        {
          "internalType": "address",
          "name": "to",
          "type": "address"
        },
        {
          "internalType": "uint256",
          "name": "value",
          "type": "uint256"
        }
      ],
      "name": "transfer",
      "outputs": [
        {
          "internalType": "bool",
          "name": "",
          "type": "bool"
        }
      ],
      "stateMutability": "nonpayable",
      "type": "function"
    },
    {
      "inputs": [
        {
          "internalType": "address",
          "name": "from",
          "type": "address"
        },
        {
          "internalType": "address",
          "name": "to",
          "type": "address"
        },
        {
          "internalType": "uint256",
          "name": "value",
          "type": "uint256"
        }
      ],
      "name": "transferFrom",
      "outputs": [
        {
          "internalType": "bool",
          "name": "",
          "type": "bool"
        }
      ],
      "stateMutability": "nonpayable",
      "type": "function"
    },
    {
      "inputs": [],
      "name": "unpause",
      "outputs": [],
      "stateMutability": "nonpayable",
      "type": "function"
    },
    {
      "inputs": [
        {
          "internalType": "address",
          "name": "newImplementation",
          "type": "address"
        },
        {
          "internalType": "bytes",
          "name": "data",
          "type": "bytes"
        }
      ],
      "name": "upgradeToAndCall",
      "outputs": [],
      "stateMutability": "payable",
      "type": "function"
    }
  ],
  "bytecode": "0x60a06040523060805234801561001457600080fd5b5061001d610022565b6100d4565b7ff0c57e16840df040f15088dc2f81fe391c3923bec73e23a9662efc9c229c6a00805468010000000000000000900460ff16156100725760405163f92ee8a960e01b815260040160405180910390fd5b80546001600160401b03908116146100d15780546001600160401b0319166001600160401b0390811782556040519081527fc7f505b2f371ae2175ee4913f4499e1f2633a7b5936321eed1cdaeb6115181d29060200160405180910390a15b50565b608051612309620000fe600039600081816110d3015281816110fc015261126101526123096000f3fe6080604052600436106101ee5760003560e01c806370a082311161010d578063a9059cbb116100a0578063d547741f1161006f578063d547741f14610589578063dd62ed3e146105a9578063e63ab1e9146105c9578063f72c0d8b146105eb578063f8c8765e1461061f57600080fd5b8063a9059cbb146104e4578063ad3cb1cc14610504578063d505accf14610535578063d53913931461055557600080fd5b806384b0196e116100dc57806384b0196e1461047257806391d148541461049a57806395d89b41146104ba578063a217fddf146104cf57600080fd5b806370a08231146103fd57806379cc67901461041d5780637ecebe001461043d5780638456cb591461045d57600080fd5b80633644e5151161018557806342966c681161015457806342966c68146103905780634f1ef286146103b057806352d1902d146103c35780635c975abb146103d857600080fd5b80633644e5151461032657806336568abe1461033b5780633f4ba83a1461035b57806340c10f191461037057600080fd5b806323b872dd116101c157806323b872dd146102a8578063248a9ca3146102c85780632f2ff15d146102e8578063313ce5671461030a57600080fd5b806301ffc9a7146101f357806306fdde0314610228578063095ea7b31461024a57806318160ddd1461026a575b600080fd5b3480156101ff57600080fd5b5061021361020e366004611c91565b61063f565b60405190151581526020015b60405180910390f35b34801561023457600080fd5b5061023d610676565b60405161021f9190611d0b565b34801561025657600080fd5b50610213610265366004611d3a565b61071f565b34801561027657600080fd5b507f52c63247e1f47db19d5ce0460030c497f067ca4cebf71ba98eeadabe20bace02545b60405190815260200161021f565b3480156102b457600080fd5b506102136102c3366004611d64565b610737565b3480156102d457600080fd5b5061029a6102e3366004611da0565b61075d565b3480156102f457600080fd5b50610308610303366004611db9565b61077f565b005b34801561031657600080fd5b506040516012815260200161021f565b34801561033257600080fd5b5061029a6107a1565b34801561034757600080fd5b50610308610356366004611db9565b6107b0565b34801561036757600080fd5b506103086107e8565b34801561037c57600080fd5b5061030861038b366004611d3a565b61080b565b34801561039c57600080fd5b506103086103ab366004611da0565b61083f565b6103086103be366004611dfb565b610849565b3480156103cf57600080fd5b5061029a610868565b3480156103e457600080fd5b506000805160206122b48339815191525460ff16610213565b34801561040957600080fd5b5061029a610418366004611ebd565b610885565b34801561042957600080fd5b50610308610438366004611d3a565b6108b8565b34801561044957600080fd5b5061029a610458366004611ebd565b6108cd565b34801561046957600080fd5b506103086108d8565b34801561047e57600080fd5b506104876108f8565b60405161021f9796959493929190611ed8565b3480156104a657600080fd5b506102136104b5366004611db9565b6109a9565b3480156104c657600080fd5b5061023d6109e1565b3480156104db57600080fd5b5061029a600081565b3480156104f057600080fd5b506102136104ff366004611d3a565b610a20565b34801561051057600080fd5b5061023d604051806040016040528060058152602001640352e302e360dc1b81525081565b34801561054157600080fd5b50610308610550366004611f6e565b610a2e565b34801561056157600080fd5b5061029a7f9f2df0fed2c77648de5860a4cc508cd0818c85b8b8a1ab4ceeef8d981c8956a681565b34801561059557600080fd5b506103086105a4366004611db9565b610b87565b3480156105b557600080fd5b5061029a6105c4366004611fe1565b610ba3565b3480156105d557600080fd5b5061029a60008051602061227483398151915281565b3480156105f757600080fd5b5061029a7f189ab7a9244df0848122154315af71fe140f3db0fe014031783b0946b8c9d2e381565b34801561062b57600080fd5b5061030861063a36600461200b565b610bed565b60006001600160e01b03198216637965db0b60e01b148061067057506301ffc9a760e01b6001600160e01b03198316145b92915050565b606060006000805160206122148339815191525b905080600301805461069b9061205f565b80601f01602080910402602001604051908101604052809291908181526020018280546106c79061205f565b80156107145780601f106106e957610100808354040283529160200191610714565b820191906000526020600020905b8154815290600101906020018083116106f757829003601f168201915b505050505091505090565b60003361072d818585610dfb565b5060019392505050565b600033610745858285610e08565b610750858585610e68565b60019150505b9392505050565b6000908152600080516020612294833981519152602052604090206001015490565b6107888261075d565b61079181610ec7565b61079b8383610ed1565b50505050565b60006107ab610f76565b905090565b6001600160a01b03811633146107d95760405163334bd91960e11b815260040160405180910390fd5b6107e38282610f80565b505050565b60008051602061227483398151915261080081610ec7565b610808610ffc565b50565b7f9f2df0fed2c77648de5860a4cc508cd0818c85b8b8a1ab4ceeef8d981c8956a661083581610ec7565b6107e3838361105c565b6108083382611092565b6108516110c8565b61085a8261116f565b6108648282611199565b5050565b6000610872611256565b5060008051602061225483398151915290565b6000806000805160206122148339815191525b6001600160a01b0390931660009081526020939093525050604090205490565b6108c3823383610e08565b6108648282611092565b60006106708261129f565b6000805160206122748339815191526108f081610ec7565b6108086112c8565b60006060808280808381600080516020612234833981519152805490915015801561092557506001810154155b61096e5760405162461bcd60e51b81526020600482015260156024820152741152540dcc4c8e88155b9a5b9a5d1a585b1a5e9959605a1b60448201526064015b60405180910390fd5b610976611311565b61097e611350565b60408051600080825260208201909252600f60f81b9c939b5091995046985030975095509350915050565b6000918252600080516020612294833981519152602090815260408084206001600160a01b0393909316845291905290205460ff1690565b7f52c63247e1f47db19d5ce0460030c497f067ca4cebf71ba98eeadabe20bace0480546060916000805160206122148339815191529161069b9061205f565b60003361072d818585610e68565b83421115610a525760405163313c898160e11b815260048101859052602401610965565b60007f6e71edae12b1b97f4d1f60370fef10105fa2faae0126114a169c64845d6126c9888888610abe8c6001600160a01b031660009081527f5ab42ced628888259c08ac98db1eb0cf702fc1501344311d8b100cd1bfe4bb006020526040902080546001810190915590565b6040805160208101969096526001600160a01b0394851690860152929091166060840152608083015260a082015260c0810186905260e0016040516020818303038152906040528051906020012090506000610b1982611368565b90506000610b2982878787611395565b9050896001600160a01b0316816001600160a01b031614610b70576040516325c0072360e11b81526001600160a01b0380831660048301528b166024820152604401610965565b610b7b8a8a8a610dfb565b50505050505050505050565b610b908261075d565b610b9981610ec7565b61079b8383610f80565b6001600160a01b0391821660009081527f52c63247e1f47db19d5ce0460030c497f067ca4cebf71ba98eeadabe20bace016020908152604080832093909416825291909152205490565b7ff0c57e16840df040f15088dc2f81fe391c3923bec73e23a9662efc9c229c6a008054600160401b810460ff16159067ffffffffffffffff16600081158015610c335750825b905060008267ffffffffffffffff166001148015610c505750303b155b905081158015610c5e575080155b15610c7c5760405163f92ee8a960e01b815260040160405180910390fd5b845467ffffffffffffffff191660011785558315610ca657845460ff60401b1916600160401b1785555b610ce86040518060400160405280600681526020016526bca1b7b4b760d11b815250604051806040016040528060028152602001614d4360f01b8152506113c3565b610cf06113d5565b610cf86113dd565b610d006113d5565b610d276040518060400160405280600681526020016526bca1b7b4b760d11b8152506113ed565b610d2f6113d5565b610d3a60008a610ed1565b50610d5360008051602061227483398151915289610ed1565b50610d7e7f9f2df0fed2c77648de5860a4cc508cd0818c85b8b8a1ab4ceeef8d981c8956a688610ed1565b50610da97f189ab7a9244df0848122154315af71fe140f3db0fe014031783b0946b8c9d2e387610ed1565b508315610df057845460ff60401b19168555604051600181527fc7f505b2f371ae2175ee4913f4499e1f2633a7b5936321eed1cdaeb6115181d29060200160405180910390a15b505050505050505050565b6107e38383836001611418565b6000610e148484610ba3565b9050600019811461079b5781811015610e5957604051637dc7a0d960e11b81526001600160a01b03841660048201526024810182905260448101839052606401610965565b61079b84848484036000611418565b6001600160a01b038316610e9257604051634b637e8f60e11b815260006004820152602401610965565b6001600160a01b038216610ebc5760405163ec442f0560e01b815260006004820152602401610965565b6107e3838383611500565b610808813361150b565b6000600080516020612294833981519152610eec84846109a9565b610f6c576000848152602082815260408083206001600160a01b03871684529091529020805460ff19166001179055610f223390565b6001600160a01b0316836001600160a01b0316857f2f8788117e7eff1d82e926ec794901d17c78024a50270940304540a733656f0d60405160405180910390a46001915050610670565b6000915050610670565b60006107ab611544565b6000600080516020612294833981519152610f9b84846109a9565b15610f6c576000848152602082815260408083206001600160a01b0387168085529252808320805460ff1916905551339287917ff6391f5c32d9c69d2a47ea670b442974b53935d1edc7fd64eb21e047a839171b9190a46001915050610670565b6110046115b8565b6000805160206122b4833981519152805460ff191681557f5db9ee0a495bf2e6ff9c91a7834c1ba4fdd244a5e8aa4e537bd38aeae4b073aa335b6040516001600160a01b03909116815260200160405180910390a150565b6001600160a01b0382166110865760405163ec442f0560e01b815260006004820152602401610965565b61086460008383611500565b6001600160a01b0382166110bc57604051634b637e8f60e11b815260006004820152602401610965565b61086482600083611500565b306001600160a01b037f000000000000000000000000000000000000000000000000000000000000000016148061114f57507f00000000000000000000000000000000000000000000000000000000000000006001600160a01b0316611143600080516020612254833981519152546001600160a01b031690565b6001600160a01b031614155b1561116d5760405163703e46dd60e11b815260040160405180910390fd5b565b7f189ab7a9244df0848122154315af71fe140f3db0fe014031783b0946b8c9d2e361086481610ec7565b816001600160a01b03166352d1902d6040518163ffffffff1660e01b8152600401602060405180830381865afa9250505080156111f3575060408051601f3d908101601f191682019092526111f091810190612099565b60015b61121b57604051634c9c8ce360e01b81526001600160a01b0383166004820152602401610965565b600080516020612254833981519152811461124c57604051632a87526960e21b815260048101829052602401610965565b6107e383836115e8565b306001600160a01b037f0000000000000000000000000000000000000000000000000000000000000000161461116d5760405163703e46dd60e11b815260040160405180910390fd5b6000807f5ab42ced628888259c08ac98db1eb0cf702fc1501344311d8b100cd1bfe4bb00610898565b6112d061163e565b6000805160206122b4833981519152805460ff191660011781557f62e78cea01bee320cd4e420270b5ea74000d11b0c9f74754ebdbfc544b05a2583361103e565b7fa16a46d94261c7517cc8ff89f61c0ce93598e3c849801011dee649a6a557d10280546060916000805160206122348339815191529161069b9061205f565b6060600060008051602061223483398151915261068a565b6000610670611375610f76565b8360405161190160f01b8152600281019290925260228201526042902090565b6000806000806113a78888888861166f565b9250925092506113b7828261173e565b50909695505050505050565b6113cb6117f7565b6108648282611840565b61116d6117f7565b6113e56117f7565b61116d611891565b6113f56117f7565b61080881604051806040016040528060018152602001603160f81b8152506118b2565b6000805160206122148339815191526001600160a01b0385166114515760405163e602df0560e01b815260006004820152602401610965565b6001600160a01b03841661147b57604051634a1406b160e11b815260006004820152602401610965565b6001600160a01b038086166000908152600183016020908152604080832093881683529290522083905581156114f957836001600160a01b0316856001600160a01b03167f8c5be1e5ebec7d5bd14f71427d1e84f3dd0314c0f7b2291e5b200ac8c7c3b925856040516114f091815260200190565b60405180910390a35b5050505050565b6107e3838383611913565b61151582826109a9565b6108645760405163e2517d3f60e01b81526001600160a01b038216600482015260248101839052604401610965565b60007f8b73c3c69bb8fe3d512ecc4cf759cc79239f7b179b0ffacaa9a75d522b39400f61156f611926565b611577611990565b60408051602081019490945283019190915260608201524660808201523060a082015260c00160405160208183030381529060405280519060200120905090565b6000805160206122b48339815191525460ff1661116d57604051638dfc202b60e01b815260040160405180910390fd5b6115f1826119d4565b6040516001600160a01b038316907fbc7cd75a20ee27fd9adebab32041f755214dbc6bffa90cc0225b39da2e5c2d3b90600090a2805115611636576107e38282611a39565b610864611aaf565b6000805160206122b48339815191525460ff161561116d5760405163d93c066560e01b815260040160405180910390fd5b600080807f7fffffffffffffffffffffffffffffff5d576e7357a4501ddfe92f46681b20a08411156116aa5750600091506003905082611734565b604080516000808252602082018084528a905260ff891692820192909252606081018790526080810186905260019060a0016020604051602081039080840390855afa1580156116fe573d6000803e3d6000fd5b5050604051601f1901519150506001600160a01b03811661172a57506000925060019150829050611734565b9250600091508190505b9450945094915050565b6000826003811115611752576117526120b2565b0361175b575050565b600182600381111561176f5761176f6120b2565b0361178d5760405163f645eedf60e01b815260040160405180910390fd5b60028260038111156117a1576117a16120b2565b036117c25760405163fce698f760e01b815260048101829052602401610965565b60038260038111156117d6576117d66120b2565b03610864576040516335e2f38360e21b815260048101829052602401610965565b7ff0c57e16840df040f15088dc2f81fe391c3923bec73e23a9662efc9c229c6a0054600160401b900460ff1661116d57604051631afcd79f60e31b815260040160405180910390fd5b6118486117f7565b6000805160206122148339815191527f52c63247e1f47db19d5ce0460030c497f067ca4cebf71ba98eeadabe20bace036118828482612116565b506004810161079b8382612116565b6118996117f7565b6000805160206122b4833981519152805460ff19169055565b6118ba6117f7565b6000805160206122348339815191527fa16a46d94261c7517cc8ff89f61c0ce93598e3c849801011dee649a6a557d1026118f48482612116565b50600381016119038382612116565b5060008082556001909101555050565b61191b61163e565b6107e3838383611ace565b600060008051602061223483398151915281611940611311565b80519091501561195857805160209091012092915050565b81548015611967579392505050565b7fc5d2460186f7233c927e7db2dcc703c0e500b653ca82273b7bfad8045d85a470935050505090565b6000600080516020612234833981519152816119aa611350565b8051909150156119c257805160209091012092915050565b60018201548015611967579392505050565b806001600160a01b03163b600003611a0a57604051634c9c8ce360e01b81526001600160a01b0382166004820152602401610965565b60008051602061225483398151915280546001600160a01b0319166001600160a01b0392909216919091179055565b6060600080846001600160a01b031684604051611a5691906121d6565b600060405180830381855af49150503d8060008114611a91576040519150601f19603f3d011682016040523d82523d6000602084013e611a96565b606091505b5091509150611aa6858383611c0c565b95945050505050565b341561116d5760405163b398979f60e01b815260040160405180910390fd5b6000805160206122148339815191526001600160a01b038416611b0a5781816002016000828254611aff91906121f2565b90915550611b7c9050565b6001600160a01b03841660009081526020829052604090205482811015611b5d5760405163391434e360e21b81526001600160a01b03861660048201526024810182905260448101849052606401610965565b6001600160a01b03851660009081526020839052604090209083900390555b6001600160a01b038316611b9a576002810180548390039055611bb9565b6001600160a01b03831660009081526020829052604090208054830190555b826001600160a01b0316846001600160a01b03167fddf252ad1be2c89b69c2b068fc378daa952ba7f163c4a11628f55a4df523b3ef84604051611bfe91815260200190565b60405180910390a350505050565b606082611c2157611c1c82611c68565b610756565b8151158015611c3857506001600160a01b0384163b155b15611c6157604051639996b31560e01b81526001600160a01b0385166004820152602401610965565b5080610756565b805115611c785780518082602001fd5b604051630a12f52160e11b815260040160405180910390fd5b600060208284031215611ca357600080fd5b81356001600160e01b03198116811461075657600080fd5b60005b83811015611cd6578181015183820152602001611cbe565b50506000910152565b60008151808452611cf7816020860160208601611cbb565b601f01601f19169290920160200192915050565b6020815260006107566020830184611cdf565b80356001600160a01b0381168114611d3557600080fd5b919050565b60008060408385031215611d4d57600080fd5b611d5683611d1e565b946020939093013593505050565b600080600060608486031215611d7957600080fd5b611d8284611d1e565b9250611d9060208501611d1e565b9150604084013590509250925092565b600060208284031215611db257600080fd5b5035919050565b60008060408385031215611dcc57600080fd5b82359150611ddc60208401611d1e565b90509250929050565b634e487b7160e01b600052604160045260246000fd5b60008060408385031215611e0e57600080fd5b611e1783611d1e565b9150602083013567ffffffffffffffff80821115611e3457600080fd5b818501915085601f830112611e4857600080fd5b813581811115611e5a57611e5a611de5565b604051601f8201601f19908116603f01168101908382118183101715611e8257611e82611de5565b81604052828152886020848701011115611e9b57600080fd5b8260208601602083013760006020848301015280955050505050509250929050565b600060208284031215611ecf57600080fd5b61075682611d1e565b60ff60f81b881681526000602060e081840152611ef860e084018a611cdf565b8381036040850152611f0a818a611cdf565b606085018990526001600160a01b038816608086015260a0850187905284810360c0860152855180825283870192509083019060005b81811015611f5c57835183529284019291840191600101611f40565b50909c9b505050505050505050505050565b600080600080600080600060e0888a031215611f8957600080fd5b611f9288611d1e565b9650611fa060208901611d1e565b95506040880135945060608801359350608088013560ff81168114611fc457600080fd5b9699959850939692959460a0840135945060c09093013592915050565b60008060408385031215611ff457600080fd5b611ffd83611d1e565b9150611ddc60208401611d1e565b6000806000806080858703121561202157600080fd5b61202a85611d1e565b935061203860208601611d1e565b925061204660408601611d1e565b915061205460608601611d1e565b905092959194509250565b600181811c9082168061207357607f821691505b60208210810361209357634e487b7160e01b600052602260045260246000fd5b50919050565b6000602082840312156120ab57600080fd5b5051919050565b634e487b7160e01b600052602160045260246000fd5b601f8211156107e357600081815260208120601f850160051c810160208610156120ef5750805b601f850160051c820191505b8181101561210e578281556001016120fb565b505050505050565b815167ffffffffffffffff81111561213057612130611de5565b6121448161213e845461205f565b846120c8565b602080601f83116001811461217957600084156121615750858301515b600019600386901b1c1916600185901b17855561210e565b600085815260208120601f198616915b828110156121a857888601518255948401946001909101908401612189565b50858210156121c65787850151600019600388901b60f8161c191681555b5050505050600190811b01905550565b600082516121e8818460208701611cbb565b9190910192915050565b8082018082111561067057634e487b7160e01b600052601160045260246000fdfe52c63247e1f47db19d5ce0460030c497f067ca4cebf71ba98eeadabe20bace00a16a46d94261c7517cc8ff89f61c0ce93598e3c849801011dee649a6a557d100360894a13ba1a3210667c828492db98dca3e2076cc3735a920a3ca505d382bbc65d7a28e3265b37a6474929f336521b332c1681b933f6cb9f3376673440d862a02dd7bc7dec4dceedda775e58dd541e08a116c6c53815c0bd028192f7b626800cd5ed15c6e187e77e9aee88184c21f4f2182ab5827cb3b7e07fbedcd63f03300a26469706673582212209e3c2dffe781e0ff58ae86ccb61940108f8a10c99442d169c9870322cf66324164736f6c63430008140033",
  "linkReferences": {},
  "deployedLinkReferences": {}
}