{
  "_format": "hh-sol-artifact-1",
  "contractName": "MyCoinV2",
  "sourceName": "contracts/MyCoinV2.sol",
  "abi": [
    {
      "inputs": [],
      "stateMutability": "nonpayable",
      "type": "constructor"
    },
    {
      "inputs": [],
      "name": "AccessControlBadConfirmation",
      "type": "error"
    },
    {
      "inputs": [
        {
          "internalType": "address",
          "name": "account",
          "type": "address"
        },
        {
          "internalType": "bytes32",
          "name": "neededRole",
          "type": "bytes32"
        }
      ],
      "name": "AccessControlUnauthorizedAccount",
      "type": "error"
    },
    {
      "inputs": [
        {
          "internalType": "address",
          "name": "target",
          "type": "address"
        }
      ],
      "name": "AddressEmptyCode",
      "type": "error"
    },
    {
      "inputs": [],
      "name": "ECDSAInvalidSignature",
      "type": "error"
    },
    {
      "inputs": [
        {
          "internalType": "uint256",
          "name": "length",
          "type": "uint256"
        }
      ],
      "name": "ECDSAInvalidSignatureLength",
      "type": "error"
    },
    {
      "inputs": [
        {
          "internalType": "bytes32",
          "name": "s",
          "type": "bytes32"
        }
      ],
      "name": "ECDSAInvalidSignatureS",
      "type": "error"
    },
    {
      "inputs": [
        {
          "internalType": "address",
          "name": "implementation",
          "type": "address"
        }
      ],
      "name": "ERC1967InvalidImplementation",
      "type": "error"
    },
    {
      "inputs": [],
      "name": "ERC1967NonPayable",
      "type": "error"
    },
    {
      "inputs": [
        {
          "internalType": "address",
          "name": "spender",
          "type": "address"
        },
        {
          "internalType": "uint256",
          "name": "allowance",
          "type": "uint256"
        },
        {
          "internalType": "uint256",
          "name": "needed",
          "type": "uint256"
        }
      ],
      "name": "ERC20InsufficientAllowance",
      "type": "error"
    },
    {
      "inputs": [
        {
          "internalType": "address",
          "name": "sender",
          "type": "address"
        },
        {
          "internalType": "uint256",
          "name": "balance",
          "type": "uint256"
        },
        {
          "internalType": "uint256",
          "name": "needed",
          "type": "uint256"
        }
      ],
      "name": "ERC20InsufficientBalance",
      "type": "error"
    },
    {
      "inputs": [
        {
          "internalType": "address",
          "name": "approver",
          "type": "address"
        }
      ],
      "name": "ERC20InvalidApprover",
      "type": "error"
    },
    {
      "inputs": [
        {
          "internalType": "address",
          "name": "receiver",
          "type": "address"
        }
      ],
      "name": "ERC20InvalidReceiver",
      "type": "error"
    },
    {
      "inputs": [
        {
          "internalType": "address",
          "name": "sender",
          "type": "address"
        }
      ],
      "name": "ERC20InvalidSender",
      "type": "error"
    },
    {
      "inputs": [
        {
          "internalType": "address",
          "name": "spender",
          "type": "address"
        }
      ],
      "name": "ERC20InvalidSpender",
      "type": "error"
    },
    {
      "inputs": [
        {
          "internalType": "uint256",
          "name": "deadline",
          "type": "uint256"
        }
      ],
      "name": "ERC2612ExpiredSignature",
      "type": "error"
    },
    {
      "inputs": [
        {
          "internalType": "address",
          "name": "signer",
          "type": "address"
        },
        {
          "internalType": "address",
          "name": "owner",
          "type": "address"
        }
      ],
      "name": "ERC2612InvalidSigner",
      "type": "error"
    },
    {
      "inputs": [],
      "name": "EnforcedPause",
      "type": "error"
    },
    {
      "inputs": [],
      "name": "ExpectedPause",
      "type": "error"
    },
    {
      "inputs": [],
      "name": "FailedInnerCall",
      "type": "error"
    },
    {
      "inputs": [
        {
          "internalType": "address",
          "name": "account",
          "type": "address"
        },
        {
          "internalType": "uint256",
          "name": "currentNonce",
          "type": "uint256"
        }
      ],
      "name": "InvalidAccountNonce",
      "type": "error"
    },
    {
      "inputs": [],
      "name": "InvalidInitialization",
      "type": "error"
    },
    {
      "inputs": [],
      "name": "NotInitializing",
      "type": "error"
    },
    {
      "inputs": [],
      "name": "UUPSUnauthorizedCallContext",
      "type": "error"
    },
    {
      "inputs": [
        {
          "internalType": "bytes32",
          "name": "slot",
          "type": "bytes32"
        }
      ],
      "name": "UUPSUnsupportedProxiableUUID",
      "type": "error"
    },
    {
      "anonymous": false,
      "inputs": [
        {
          "indexed": true,
          "internalType": "address",
          "name": "owner",
          "type": "address"
        },
        {
          "indexed": true,
          "internalType": "address",
          "name": "spender",
          "type": "address"
        },
        {
          "indexed": false,
          "internalType": "uint256",
          "name": "value",
          "type": "uint256"
        }
      ],
      "name": "Approval",
      "type": "event"
    },
    {
      "anonymous": false,
      "inputs": [],
      "name": "EIP712DomainChanged",
      "type": "event"
    },
    {
      "anonymous": false,
      "inputs": [
        {
          "indexed": false,
          "internalType": "uint64",
          "name": "version",
          "type": "uint64"
        }
      ],
      "name": "Initialized",
      "type": "event"
    },
    {
      "anonymous": false,
      "inputs": [
        {
          "indexed": false,
          "internalType": "address",
          "name": "account",
          "type": "address"
        }
      ],
      "name": "Paused",
      "type": "event"
    },
    {
      "anonymous": false,
      "inputs": [
        {
          "indexed": true,
          "internalType": "bytes32",
          "name": "role",
          "type": "bytes32"
        },
        {
          "indexed": true,
          "internalType": "bytes32",
          "name": "previousAdminRole",
          "type": "bytes32"
        },
        {
          "indexed": true,
          "internalType": "bytes32",
          "name": "newAdminRole",
          "type": "bytes32"
        }
      ],
      "name": "RoleAdminChanged",
      "type": "event"
    },
    {
      "anonymous": false,
      "inputs": [
        {
          "indexed": true,
          "internalType": "bytes32",
          "name": "role",
          "type": "bytes32"
        },
        {
          "indexed": true,
          "internalType": "address",
          "name": "account",
          "type": "address"
        },
        {
          "indexed": true,
          "internalType": "address",
          "name": "sender",
          "type": "address"
        }
      ],
      "name": "RoleGranted",
      "type": "event"
    },
    {
      "anonymous": false,
      "inputs": [
        {
          "indexed": true,
          "internalType": "bytes32",
          "name": "role",
          "type": "bytes32"
        },
        {
          "indexed": true,
          "internalType": "address",
          "name": "account",
          "type": "address"
        },
        {
          "indexed": true,
          "internalType": "address",
          "name": "sender",
          "type": "address"
        }
      ],
      "name": "RoleRevoked",
      "type": "event"
    },
    {
      "anonymous": false,
      "inputs": [
        {
          "indexed": true,
          "internalType": "address",
          "name": "from",
          "type": "address"
        },
        {
          "indexed": true,
          "internalType": "address",
          "name": "to",
          "type": "address"
        },
        {
          "indexed": false,
          "internalType": "uint256",
          "name": "value",
          "type": "uint256"
        }
      ],
      "name": "Transfer",
      "type": "event"
    },
    {
      "anonymous": false,
      "inputs": [
        {
          "indexed": false,
          "internalType": "address",
          "name": "account",
          "type": "address"
        }
      ],
      "name": "Unpaused",
      "type": "event"
    },
    {
      "anonymous": false,
      "inputs": [
        {
          "indexed": true,
          "internalType": "address",
          "name": "implementation",
          "type": "address"
        }
      ],
      "name": "Upgraded",
      "type": "event"
    },
    {
      "inputs": [],
      "name": "DEFAULT_ADMIN_ROLE",
      "outputs": [
        {
          "internalType": "bytes32",
          "name": "",
          "type": "bytes32"
        }
      ],
      "stateMutability": "view",
      "type": "function"
    },
    {
      "inputs": [],
      "name": "DOMAIN_SEPARATOR",
      "outputs": [
        {
          "internalType": "bytes32",
          "name": "",
          "type": "bytes32"
        }
      ],
      "stateMutability": "view",
      "type": "function"
    },
    {
      "inputs": [],
      "name": "MINTER_ROLE",
      "outputs": [
        {
          "internalType": "bytes32",
          "name": "",
          "type": "bytes32"
        }
      ],
      "stateMutability": "view",
      "type": "function"
    },
    {
      "inputs": [],
      "name": "PAUSER_ROLE",
      "outputs": [
        {
          "internalType": "bytes32",
          "name": "",
          "type": "bytes32"
        }
      ],
      "stateMutability": "view",
      "type": "function"
    },
    {
      "inputs": [],
      "name": "UPGRADER_ROLE",
      "outputs": [
        {
          "internalType": "bytes32",
          "name": "",
          "type": "bytes32"
        }
      ],
      "stateMutability": "view",
      "type": "function"
    },
    {
      "inputs": [],
      "name": "UPGRADE_INTERFACE_VERSION",
      "outputs": [
        {
          "internalType": "string",
          "name": "",
          "type": "string"
        }
      ],
      "stateMutability": "view",
      "type": "function"
    },
    {
      "inputs": [
        {
          "internalType": "address",
          "name": "owner",
          "type": "address"
        },
        {
          "internalType": "address",
          "name": "spender",
          "type": "address"
        }
      ],
      "name": "allowance",
      "outputs": [
        {
          "internalType": "uint256",
          "name": "",
          "type": "uint256"
        }
      ],
      "stateMutability": "view",
      "type": "function"
    },
    {
      "inputs": [
        {
          "internalType": "address",
          "name": "spender",
          "type": "address"
        },
        {
          "internalType": "uint256",
          "name": "value",
          "type": "uint256"
        }
      ],
      "name": "approve",
      "outputs": [
        {
          "internalType": "bool",
          "name": "",
          "type": "bool"
        }
      ],
      "stateMutability": "nonpayable",
      "type": "function"
    },
    {
      "inputs": [
        {
          "internalType": "address",
          "name": "account",
          "type": "address"
        }
      ],
      "name": "balanceOf",
      "outputs": [
        {
          "internalType": "uint256",
          "name": "",
          "type": "uint256"
        }
      ],
      "stateMutability": "view",
      "type": "function"
    },
    {
      "inputs": [
        {
          "internalType": "uint256",
          "name": "value",
          "type": "uint256"
        }
      ],
      "name": "burn",
      "outputs": [],
      "stateMutability": "nonpayable",
      "type": "function"
    },
    {
      "inputs": [
        {
          "internalType": "address",
          "name": "account",
          "type": "address"
        },
        {
          "internalType": "uint256",
          "name": "value",
          "type": "uint256"
        }
      ],
      "name": "burnFrom",
      "outputs": [],
      "stateMutability": "nonpayable",
      "type": "function"
    },
    {
      "inputs": [],
      "name": "decimals",
      "outputs": [
        {
          "internalType": "uint8",
          "name": "",
          "type": "uint8"
        }
      ],
      "stateMutability": "view",
      "type": "function"
    },
    {
      "inputs": [],
      "name": "eip712Domain",
      "outputs": [
        {
          "internalType": "bytes1",
          "name": "fields",
          "type": "bytes1"
        },
        {
          "internalType": "string",
          "name": "name",
          "type": "string"
        },
        {
          "internalType": "string",
          "name": "version",
          "type": "string"
        },
        {
          "internalType": "uint256",
          "name": "chainId",
          "type": "uint256"
        },
        {
          "internalType": "address",
          "name": "verifyingContract",
          "type": "address"
        },
        {
          "internalType": "bytes32",
          "name": "salt",
          "type": "bytes32"
        },
        {
          "internalType": "uint256[]",
          "name": "extensions",
          "type": "uint256[]"
        }
      ],
      "stateMutability": "view",
      "type": "function"
    },
    {
      "inputs": [
        {
          "internalType": "bytes32",
          "name": "role",
          "type": "bytes32"
        }
      ],
      "name": "getRoleAdmin",
      "outputs": [
        {
          "internalType": "bytes32",
          "name": "",
          "type": "bytes32"
        }
      ],
      "stateMutability": "view",
      "type": "function"
    },
    {
      "inputs": [
        {
          "internalType": "bytes32",
          "name": "role",
          "type": "bytes32"
        },
        {
          "internalType": "address",
          "name": "account",
          "type": "address"
        }
      ],
      "name": "grantRole",
      "outputs": [],
      "stateMutability": "nonpayable",
      "type": "function"
    },
    {
      "inputs": [
        {
          "internalType": "bytes32",
          "name": "role",
          "type": "bytes32"
        },
        {
          "internalType": "address",
          "name": "account",
          "type": "address"
        }
      ],
      "name": "hasRole",
      "outputs": [
        {
          "internalType": "bool",
          "name": "",
          "type": "bool"
        }
      ],
      "stateMutability": "view",
      "type": "function"
    },
    {
      "inputs": [
        {
          "internalType": "address",
          "name": "defaultAdmin",
          "type": "address"
        },
        {
          "internalType": "address",
          "name": "pauser",
          "type": "address"
        },
        {
          "internalType": "address",
          "name": "minter",
          "type": "address"
        },
        {
          "internalType": "address",
          "name": "upgrader",
          "type": "address"
        }
      ],
      "name": "initialize",
      "outputs": [],
      "stateMutability": "nonpayable",
      "type": "function"
    },
    {
      "inputs": [
        {
          "internalType": "address",
          "name": "to",
          "type": "address"
        },
        {
          "internalType": "uint256",
          "name": "amount",
          "type": "uint256"
        }
      ],
      "name": "mint",
      "outputs": [],
      "stateMutability": "nonpayable",
      "type": "function"
    },
    {
      "inputs": [],
      "name": "name",
      "outputs": [
        {
          "internalType": "string",
          "name": "",
          "type": "string"
        }
      ],
      "stateMutability": "view",
      "type": "function"
    },
    {
      "inputs": [
        {
          "internalType": "address",
          "name": "owner",
          "type": "address"
        }
      ],
      "name": "nonces",
      "outputs": [
        {
          "internalType": "uint256",
          "name": "",
          "type": "uint256"
        }
      ],
      "stateMutability": "view",
      "type": "function"
    },
    {
      "inputs": [],
      "name": "paused",
      "outputs": [
        {
          "internalType": "bool",
          "name": "",
          "type": "bool"
        }
      ],
      "stateMutability": "view",
      "type": "function"
    },
    {
      "inputs": [
        {
          "internalType": "address",
          "name": "owner",
          "type": "address"
        },
        {
          "internalType": "address",
          "name": "spender",
          "type": "address"
        },
        {
          "internalType": "uint256",
          "name": "value",
          "type": "uint256"
        },
        {
          "internalType": "uint256",
          "name": "deadline",
          "type": "uint256"
        },
        {
          "internalType": "uint8",
          "name": "v",
          "type": "uint8"
        },
        {
          "internalType": "bytes32",
          "name": "r",
          "type": "bytes32"
        },
        {
          "internalType": "bytes32",
          "name": "s",
          "type": "bytes32"
        }
      ],
      "name": "permit",
      "outputs": [],
      "stateMutability": "nonpayable",
      "type": "function"
    },
    {
      "inputs": [],
      "name": "proxiableUUID",
      "outputs": [
        {
          "internalType": "bytes32",
          "name": "",
          "type": "bytes32"
        }
      ],
      "stateMutability": "view",
      "type": "function"
    },
    {
      "inputs": [
        {
          "internalType": "bytes32",
          "name": "role",
          "type": "bytes32"
        },
        {
          "internalType": "address",
          "name": "callerConfirmation",
          "type": "address"
        }
      ],
      "name": "renounceRole",
      "outputs": [],
      "stateMutability": "nonpayable",
      "type": "function"
    },
    {
      "inputs": [
        {
          "internalType": "bytes32",
          "name": "role",
          "type": "bytes32"
        },
        {
          "internalType": "address",
          "name": "account",
          "type": "address"
        }
      ],
      "name": "revokeRole",
      "outputs": [],
      "stateMutability": "nonpayable",
      "type": "function"
    },
    {
      "inputs": [
        {
          "internalType": "bytes4",
          "name": "interfaceId",
          "type": "bytes4"
        }
      ],
      "name": "supportsInterface",
      "outputs": [
        {
          "internalType": "bool",
          "name": "",
          "type": "bool"
        }
      ],
      "stateMutability": "view",
      "type": "function"
    },
    {
      "inputs": [],
      "name": "symbol",
      "outputs": [
        {
          "internalType": "string",
          "name": "",
          "type": "string"
        }
      ],
      "stateMutability": "view",
      "type": "function"
    },
    {
      "inputs": [],
      "name": "totalSupply",
      "outputs": [
        {
          "internalType": "uint256",
          "name": "",
          "type": "uint256"
        }
      ],
      "stateMutability": "view",
      "type": "function"
    },
    {
      "inputs": [
        {
          "internalType": "address",
          "name": "to",
          "type": "address"
        },
        {
          "internalType": "uint256",
          "name": "value",
          "type": "uint256"
        }
      ],
      "name": "transfer",
      "outputs": [
        {
          "internalType": "bool",
          "name": "",
          "type": "bool"
        }
      ],
      "stateMutability": "nonpayable",
      "type": "function"
    },
    {
      "inputs": [
        {
          "internalType": "address",
          "name": "from",
          "type": "address"
        },
        {
          "internalType": "address",
          "name": "to",
          "type": "address"
        },
        {
          "internalType": "uint256",
          "name": "value",
          "type": "uint256"
        }
      ],
      "name": "transferFrom",
      "outputs": [
        {
          "internalType": "bool",
          "name": "",
          "type": "bool"
        }
      ],
      "stateMutability": "nonpayable",
      "type": "function"
    },
    {
      "inputs": [
        {
          "internalType": "address",
          "name": "newImplementation",
          "type": "address"
        },
        {
          "internalType": "bytes",
          "name": "data",
          "type": "bytes"
        }
      ],
      "name": "upgradeToAndCall",
      "outputs": [],
      "stateMutability": "payable",
      "type": "function"
    }
  ],
  "bytecode": "0x60a06040523060805234801561001457600080fd5b5061001d610022565b6100d4565b7ff0c57e16840df040f15088dc2f81fe391c3923bec73e23a9662efc9c229c6a00805468010000000000000000900460ff16156100725760405163f92ee8a960e01b815260040160405180910390fd5b80546001600160401b03908116146100d15780546001600160401b0319166001600160401b0390811782556040519081527fc7f505b2f371ae2175ee4913f4499e1f2633a7b5936321eed1cdaeb6115181d29060200160405180910390a15b50565b6080516121ca620000fe600039600081816110290152818161105201526111b701526121ca6000f3fe6080604052600436106101d85760003560e01c806370a0823111610102578063ad3cb1cc11610095578063dd62ed3e11610064578063dd62ed3e1461057b578063e63ab1e91461059b578063f72c0d8b146105cf578063f8c8765e1461060357600080fd5b8063ad3cb1cc146104d6578063d505accf14610507578063d539139314610527578063d547741f1461055b57600080fd5b806391d14854116100d157806391d148541461046c57806395d89b411461048c578063a217fddf146104a1578063a9059cbb146104b657600080fd5b806370a08231146103e457806379cc6790146104045780637ecebe001461042457806384b0196e1461044457600080fd5b8063313ce5671161017a57806342966c681161014957806342966c68146103655780634f1ef2861461038557806352d1902d146103985780635c975abb146103ad57600080fd5b8063313ce567146102f45780633644e5151461031057806336568abe1461032557806340c10f191461034557600080fd5b806318160ddd116101b657806318160ddd1461025457806323b872dd14610292578063248a9ca3146102b25780632f2ff15d146102d257600080fd5b806301ffc9a7146101dd57806306fdde0314610212578063095ea7b314610234575b600080fd5b3480156101e957600080fd5b506101fd6101f8366004611b92565b610623565b60405190151581526020015b60405180910390f35b34801561021e57600080fd5b5061022761065a565b6040516102099190611c0c565b34801561024057600080fd5b506101fd61024f366004611c3b565b610703565b34801561026057600080fd5b507f52c63247e1f47db19d5ce0460030c497f067ca4cebf71ba98eeadabe20bace02545b604051908152602001610209565b34801561029e57600080fd5b506101fd6102ad366004611c65565b61071b565b3480156102be57600080fd5b506102846102cd366004611ca1565b610741565b3480156102de57600080fd5b506102f26102ed366004611cba565b610763565b005b34801561030057600080fd5b5060405160128152602001610209565b34801561031c57600080fd5b50610284610785565b34801561033157600080fd5b506102f2610340366004611cba565b610794565b34801561035157600080fd5b506102f2610360366004611c3b565b6107cc565b34801561037157600080fd5b506102f2610380366004611ca1565b610800565b6102f2610393366004611cfc565b61080d565b3480156103a457600080fd5b5061028461082c565b3480156103b957600080fd5b507fcd5ed15c6e187e77e9aee88184c21f4f2182ab5827cb3b7e07fbedcd63f033005460ff166101fd565b3480156103f057600080fd5b506102846103ff366004611dbe565b610849565b34801561041057600080fd5b506102f261041f366004611c3b565b61087c565b34801561043057600080fd5b5061028461043f366004611dbe565b610891565b34801561045057600080fd5b5061045961089c565b6040516102099796959493929190611dd9565b34801561047857600080fd5b506101fd610487366004611cba565b61094d565b34801561049857600080fd5b50610227610985565b3480156104ad57600080fd5b50610284600081565b3480156104c257600080fd5b506101fd6104d1366004611c3b565b6109c4565b3480156104e257600080fd5b50610227604051806040016040528060058152602001640352e302e360dc1b81525081565b34801561051357600080fd5b506102f2610522366004611e6f565b6109d2565b34801561053357600080fd5b506102847f9f2df0fed2c77648de5860a4cc508cd0818c85b8b8a1ab4ceeef8d981c8956a681565b34801561056757600080fd5b506102f2610576366004611cba565b610b2b565b34801561058757600080fd5b50610284610596366004611ee2565b610b47565b3480156105a757600080fd5b506102847f65d7a28e3265b37a6474929f336521b332c1681b933f6cb9f3376673440d862a81565b3480156105db57600080fd5b506102847f189ab7a9244df0848122154315af71fe140f3db0fe014031783b0946b8c9d2e381565b34801561060f57600080fd5b506102f261061e366004611f0c565b610b91565b60006001600160e01b03198216637965db0b60e01b148061065457506301ffc9a760e01b6001600160e01b03198316145b92915050565b606060006000805160206121158339815191525b905080600301805461067f90611f60565b80601f01602080910402602001604051908101604052809291908181526020018280546106ab90611f60565b80156106f85780601f106106cd576101008083540402835291602001916106f8565b820191906000526020600020905b8154815290600101906020018083116106db57829003601f168201915b505050505091505090565b600033610711818585610db1565b5060019392505050565b600033610729858285610dbe565b610734858585610e1e565b60019150505b9392505050565b6000908152600080516020612175833981519152602052604090206001015490565b61076c82610741565b61077581610e7d565b61077f8383610e87565b50505050565b600061078f610f2c565b905090565b6001600160a01b03811633146107bd5760405163334bd91960e11b815260040160405180910390fd5b6107c78282610f36565b505050565b7f9f2df0fed2c77648de5860a4cc508cd0818c85b8b8a1ab4ceeef8d981c8956a66107f681610e7d565b6107c78383610fb2565b61080a3382610fe8565b50565b61081561101e565b61081e826110c5565b61082882826110ef565b5050565b60006108366111ac565b5060008051602061215583398151915290565b6000806000805160206121158339815191525b6001600160a01b0390931660009081526020939093525050604090205490565b610887823383610dbe565b6108288282610fe8565b6000610654826111f5565b6000606080828080838160008051602061213583398151915280549091501580156108c957506001810154155b6109125760405162461bcd60e51b81526020600482015260156024820152741152540dcc4c8e88155b9a5b9a5d1a585b1a5e9959605a1b60448201526064015b60405180910390fd5b61091a61121e565b61092261125d565b60408051600080825260208201909252600f60f81b9c939b5091995046985030975095509350915050565b6000918252600080516020612175833981519152602090815260408084206001600160a01b0393909316845291905290205460ff1690565b7f52c63247e1f47db19d5ce0460030c497f067ca4cebf71ba98eeadabe20bace0480546060916000805160206121158339815191529161067f90611f60565b600033610711818585610e1e565b834211156109f65760405163313c898160e11b815260048101859052602401610909565b60007f6e71edae12b1b97f4d1f60370fef10105fa2faae0126114a169c64845d6126c9888888610a628c6001600160a01b031660009081527f5ab42ced628888259c08ac98db1eb0cf702fc1501344311d8b100cd1bfe4bb006020526040902080546001810190915590565b6040805160208101969096526001600160a01b0394851690860152929091166060840152608083015260a082015260c0810186905260e0016040516020818303038152906040528051906020012090506000610abd82611275565b90506000610acd828787876112a2565b9050896001600160a01b0316816001600160a01b031614610b14576040516325c0072360e11b81526001600160a01b0380831660048301528b166024820152604401610909565b610b1f8a8a8a610db1565b50505050505050505050565b610b3482610741565b610b3d81610e7d565b61077f8383610f36565b6001600160a01b0391821660009081527f52c63247e1f47db19d5ce0460030c497f067ca4cebf71ba98eeadabe20bace016020908152604080832093909416825291909152205490565b7ff0c57e16840df040f15088dc2f81fe391c3923bec73e23a9662efc9c229c6a008054600160401b810460ff16159067ffffffffffffffff16600081158015610bd75750825b905060008267ffffffffffffffff166001148015610bf45750303b155b905081158015610c02575080155b15610c205760405163f92ee8a960e01b815260040160405180910390fd5b845467ffffffffffffffff191660011785558315610c4a57845460ff60401b1916600160401b1785555b610c8c6040518060400160405280600681526020016526bca1b7b4b760d11b815250604051806040016040528060028152602001614d4360f01b8152506112d0565b610c946112e2565b610c9c6112ea565b610ca46112e2565b610ccb6040518060400160405280600681526020016526bca1b7b4b760d11b8152506112fa565b610cd36112e2565b610cde60008a610e87565b50610d097f65d7a28e3265b37a6474929f336521b332c1681b933f6cb9f3376673440d862a89610e87565b50610d347f9f2df0fed2c77648de5860a4cc508cd0818c85b8b8a1ab4ceeef8d981c8956a688610e87565b50610d5f7f189ab7a9244df0848122154315af71fe140f3db0fe014031783b0946b8c9d2e387610e87565b508315610da657845460ff60401b19168555604051600181527fc7f505b2f371ae2175ee4913f4499e1f2633a7b5936321eed1cdaeb6115181d29060200160405180910390a15b505050505050505050565b6107c78383836001611325565b6000610dca8484610b47565b9050600019811461077f5781811015610e0f57604051637dc7a0d960e11b81526001600160a01b03841660048201526024810182905260448101839052606401610909565b61077f84848484036000611325565b6001600160a01b038316610e4857604051634b637e8f60e11b815260006004820152602401610909565b6001600160a01b038216610e725760405163ec442f0560e01b815260006004820152602401610909565b6107c783838361140d565b61080a8133611418565b6000600080516020612175833981519152610ea2848461094d565b610f22576000848152602082815260408083206001600160a01b03871684529091529020805460ff19166001179055610ed83390565b6001600160a01b0316836001600160a01b0316857f2f8788117e7eff1d82e926ec794901d17c78024a50270940304540a733656f0d60405160405180910390a46001915050610654565b6000915050610654565b600061078f611451565b6000600080516020612175833981519152610f51848461094d565b15610f22576000848152602082815260408083206001600160a01b0387168085529252808320805460ff1916905551339287917ff6391f5c32d9c69d2a47ea670b442974b53935d1edc7fd64eb21e047a839171b9190a46001915050610654565b6001600160a01b038216610fdc5760405163ec442f0560e01b815260006004820152602401610909565b6108286000838361140d565b6001600160a01b03821661101257604051634b637e8f60e11b815260006004820152602401610909565b6108288260008361140d565b306001600160a01b037f00000000000000000000000000000000000000000000000000000000000000001614806110a557507f00000000000000000000000000000000000000000000000000000000000000006001600160a01b0316611099600080516020612155833981519152546001600160a01b031690565b6001600160a01b031614155b156110c35760405163703e46dd60e11b815260040160405180910390fd5b565b7f189ab7a9244df0848122154315af71fe140f3db0fe014031783b0946b8c9d2e361082881610e7d565b816001600160a01b03166352d1902d6040518163ffffffff1660e01b8152600401602060405180830381865afa925050508015611149575060408051601f3d908101601f1916820190925261114691810190611f9a565b60015b61117157604051634c9c8ce360e01b81526001600160a01b0383166004820152602401610909565b60008051602061215583398151915281146111a257604051632a87526960e21b815260048101829052602401610909565b6107c783836114c5565b306001600160a01b037f000000000000000000000000000000000000000000000000000000000000000016146110c35760405163703e46dd60e11b815260040160405180910390fd5b6000807f5ab42ced628888259c08ac98db1eb0cf702fc1501344311d8b100cd1bfe4bb0061085c565b7fa16a46d94261c7517cc8ff89f61c0ce93598e3c849801011dee649a6a557d10280546060916000805160206121358339815191529161067f90611f60565b6060600060008051602061213583398151915261066e565b6000610654611282610f2c565b8360405161190160f01b8152600281019290925260228201526042902090565b6000806000806112b48888888861151b565b9250925092506112c482826115ea565b50909695505050505050565b6112d86116a3565b61082882826116ec565b6110c36116a3565b6112f26116a3565b6110c361173d565b6113026116a3565b61080a81604051806040016040528060018152602001603160f81b815250611770565b6000805160206121158339815191526001600160a01b03851661135e5760405163e602df0560e01b815260006004820152602401610909565b6001600160a01b03841661138857604051634a1406b160e11b815260006004820152602401610909565b6001600160a01b0380861660009081526001830160209081526040808320938816835292905220839055811561140657836001600160a01b0316856001600160a01b03167f8c5be1e5ebec7d5bd14f71427d1e84f3dd0314c0f7b2291e5b200ac8c7c3b925856040516113fd91815260200190565b60405180910390a35b5050505050565b6107c78383836117d1565b611422828261094d565b6108285760405163e2517d3f60e01b81526001600160a01b038216600482015260248101839052604401610909565b60007f8b73c3c69bb8fe3d512ecc4cf759cc79239f7b179b0ffacaa9a75d522b39400f61147c6117e4565b61148461184e565b60408051602081019490945283019190915260608201524660808201523060a082015260c00160405160208183030381529060405280519060200120905090565b6114ce82611892565b6040516001600160a01b038316907fbc7cd75a20ee27fd9adebab32041f755214dbc6bffa90cc0225b39da2e5c2d3b90600090a2805115611513576107c782826118f7565b61082861196d565b600080807f7fffffffffffffffffffffffffffffff5d576e7357a4501ddfe92f46681b20a084111561155657506000915060039050826115e0565b604080516000808252602082018084528a905260ff891692820192909252606081018790526080810186905260019060a0016020604051602081039080840390855afa1580156115aa573d6000803e3d6000fd5b5050604051601f1901519150506001600160a01b0381166115d6575060009250600191508290506115e0565b9250600091508190505b9450945094915050565b60008260038111156115fe576115fe611fb3565b03611607575050565b600182600381111561161b5761161b611fb3565b036116395760405163f645eedf60e01b815260040160405180910390fd5b600282600381111561164d5761164d611fb3565b0361166e5760405163fce698f760e01b815260048101829052602401610909565b600382600381111561168257611682611fb3565b03610828576040516335e2f38360e21b815260048101829052602401610909565b7ff0c57e16840df040f15088dc2f81fe391c3923bec73e23a9662efc9c229c6a0054600160401b900460ff166110c357604051631afcd79f60e31b815260040160405180910390fd5b6116f46116a3565b6000805160206121158339815191527f52c63247e1f47db19d5ce0460030c497f067ca4cebf71ba98eeadabe20bace0361172e8482612017565b506004810161077f8382612017565b6117456116a3565b7fcd5ed15c6e187e77e9aee88184c21f4f2182ab5827cb3b7e07fbedcd63f03300805460ff19169055565b6117786116a3565b6000805160206121358339815191527fa16a46d94261c7517cc8ff89f61c0ce93598e3c849801011dee649a6a557d1026117b28482612017565b50600381016117c18382612017565b5060008082556001909101555050565b6117d961198c565b6107c78383836119cf565b6000600080516020612135833981519152816117fe61121e565b80519091501561181657805160209091012092915050565b81548015611825579392505050565b7fc5d2460186f7233c927e7db2dcc703c0e500b653ca82273b7bfad8045d85a470935050505090565b60006000805160206121358339815191528161186861125d565b80519091501561188057805160209091012092915050565b60018201548015611825579392505050565b806001600160a01b03163b6000036118c857604051634c9c8ce360e01b81526001600160a01b0382166004820152602401610909565b60008051602061215583398151915280546001600160a01b0319166001600160a01b0392909216919091179055565b6060600080846001600160a01b03168460405161191491906120d7565b600060405180830381855af49150503d806000811461194f576040519150601f19603f3d011682016040523d82523d6000602084013e611954565b606091505b5091509150611964858383611b0d565b95945050505050565b34156110c35760405163b398979f60e01b815260040160405180910390fd5b7fcd5ed15c6e187e77e9aee88184c21f4f2182ab5827cb3b7e07fbedcd63f033005460ff16156110c35760405163d93c066560e01b815260040160405180910390fd5b6000805160206121158339815191526001600160a01b038416611a0b5781816002016000828254611a0091906120f3565b90915550611a7d9050565b6001600160a01b03841660009081526020829052604090205482811015611a5e5760405163391434e360e21b81526001600160a01b03861660048201526024810182905260448101849052606401610909565b6001600160a01b03851660009081526020839052604090209083900390555b6001600160a01b038316611a9b576002810180548390039055611aba565b6001600160a01b03831660009081526020829052604090208054830190555b826001600160a01b0316846001600160a01b03167fddf252ad1be2c89b69c2b068fc378daa952ba7f163c4a11628f55a4df523b3ef84604051611aff91815260200190565b60405180910390a350505050565b606082611b2257611b1d82611b69565b61073a565b8151158015611b3957506001600160a01b0384163b155b15611b6257604051639996b31560e01b81526001600160a01b0385166004820152602401610909565b508061073a565b805115611b795780518082602001fd5b604051630a12f52160e11b815260040160405180910390fd5b600060208284031215611ba457600080fd5b81356001600160e01b03198116811461073a57600080fd5b60005b83811015611bd7578181015183820152602001611bbf565b50506000910152565b60008151808452611bf8816020860160208601611bbc565b601f01601f19169290920160200192915050565b60208152600061073a6020830184611be0565b80356001600160a01b0381168114611c3657600080fd5b919050565b60008060408385031215611c4e57600080fd5b611c5783611c1f565b946020939093013593505050565b600080600060608486031215611c7a57600080fd5b611c8384611c1f565b9250611c9160208501611c1f565b9150604084013590509250925092565b600060208284031215611cb357600080fd5b5035919050565b60008060408385031215611ccd57600080fd5b82359150611cdd60208401611c1f565b90509250929050565b634e487b7160e01b600052604160045260246000fd5b60008060408385031215611d0f57600080fd5b611d1883611c1f565b9150602083013567ffffffffffffffff80821115611d3557600080fd5b818501915085601f830112611d4957600080fd5b813581811115611d5b57611d5b611ce6565b604051601f8201601f19908116603f01168101908382118183101715611d8357611d83611ce6565b81604052828152886020848701011115611d9c57600080fd5b8260208601602083013760006020848301015280955050505050509250929050565b600060208284031215611dd057600080fd5b61073a82611c1f565b60ff60f81b881681526000602060e081840152611df960e084018a611be0565b8381036040850152611e0b818a611be0565b606085018990526001600160a01b038816608086015260a0850187905284810360c0860152855180825283870192509083019060005b81811015611e5d57835183529284019291840191600101611e41565b50909c9b505050505050505050505050565b600080600080600080600060e0888a031215611e8a57600080fd5b611e9388611c1f565b9650611ea160208901611c1f565b95506040880135945060608801359350608088013560ff81168114611ec557600080fd5b9699959850939692959460a0840135945060c09093013592915050565b60008060408385031215611ef557600080fd5b611efe83611c1f565b9150611cdd60208401611c1f565b60008060008060808587031215611f2257600080fd5b611f2b85611c1f565b9350611f3960208601611c1f565b9250611f4760408601611c1f565b9150611f5560608601611c1f565b905092959194509250565b600181811c90821680611f7457607f821691505b602082108103611f9457634e487b7160e01b600052602260045260246000fd5b50919050565b600060208284031215611fac57600080fd5b5051919050565b634e487b7160e01b600052602160045260246000fd5b601f8211156107c757600081815260208120601f850160051c81016020861015611ff05750805b601f850160051c820191505b8181101561200f57828155600101611ffc565b505050505050565b815167ffffffffffffffff81111561203157612031611ce6565b6120458161203f8454611f60565b84611fc9565b602080601f83116001811461207a57600084156120625750858301515b600019600386901b1c1916600185901b17855561200f565b600085815260208120601f198616915b828110156120a95788860151825594840194600190910190840161208a565b50858210156120c75787850151600019600388901b60f8161c191681555b5050505050600190811b01905550565b600082516120e9818460208701611bbc565b9190910192915050565b8082018082111561065457634e487b7160e01b600052601160045260246000fdfe52c63247e1f47db19d5ce0460030c497f067ca4cebf71ba98eeadabe20bace00a16a46d94261c7517cc8ff89f61c0ce93598e3c849801011dee649a6a557d100360894a13ba1a3210667c828492db98dca3e2076cc3735a920a3ca505d382bbc02dd7bc7dec4dceedda775e58dd541e08a116c6c53815c0bd028192f7b626800a264697066735822122096a3eed8ddcbfa43a3463a38e7ab2f7eb7fc21c6426625916a77bb9ba37afa0164736f6c63430008140033",
  "linkReferences": {},
  "deployedLinkReferences": {}
}